:100000001EC14BC63EC1E7CB3CC13BC1F3C4F2C4E9
:1000100038C137C136C11DCCF0CB33C132C131C17B
:1000200030C12FC12EC10200080012001F00310094
:10003000470060007E009F00C500EE001B014D01DF
:100040008201BB01F80139027E02C7021303640377
:10005000B90311046E04CE0433059B050706770629
:10006000EC066407E0076008E4086B09F709870AF3
:100070001A0BB20B4E0CED0C900D380EE30E920FD6
:100080004510FC10B711761239130014CB149915D2
:100090006C1643171D18FC18DE19C41AAF1B9D1CE3
:1000A0008F1D851E7F1F7D207F2184228E239C240F
:1000B000AE25C326DD27FA281B2A412B6A2C972D53
:1000C000C82EFD2F36317332B433F93442368E37B1
:1000D000DF38333A8C3BE83C493EAD3F1541814225
:1000E000F1436545DD465948D9495D4BE54C704EB5
:1000F000005094512B53C65466560958B0595B5B57
:100100000B5DBE5E75602F62EE63B1657867426914
:10011000116BE46CBA6E9470737255743B762578EB
:10012000137A067CFB7DF57FF381F583FB850488DC
:10013000128A238C398E529070929194B696DF98E1
:100140000C9B3D9D729FABA1E8A329A66DA8B6AA02
:1001500003AD53AFA8B100B45CB6BDB821BB89BD37
:10016000F5BF65C2D9C451C7CDC94CCCD0CE58D18A
:10017000E3D373D606D99EDB39DED8E07BE322E6F3
:10018000CEE87DEB2FEEE6F0A1F360F623F9E9016E
:10019000B4048207550A2B0D0510E412C615AC18DD
:1001A000961B841E76216C246527632A652D6A3090
:1001B000743382369339A83CC23FDF42004625495A
:1001C0004E4C7B4FAC52E1551A59565C975FDC623E
:1001D00024667169C16C15706E73CA762A7A8E7D39
:1001E000F6806284D287468BBE8E3992B9953D994E
:1001F000C49C50A0DFA372A70AABA5AE44B2E7B57A
:100200008EB939BDE8C09BC452C80CCCCBCF8ED3BD
:1002100054D71FDBEDDEBFE296E670EA4EEE30F219
:1002200016F60001020000001400FFFFFF000102AB
:10023000000000140001FFFF450ACA09410911240A
:100240001FBECFE5D4E0DEBFCDBF14BE88E10FB640
:10025000F89481BD11BC0FBE10E0A0E6B0E0E4E46C
:10026000FBE102C005900D92A836B107D9F711E065
:10027000A8E6B0E001C01D92A43AB107E1F72CD086
:100280005FCCBECEFC01108211820895DC01119674
:100290008C91119790E0FD01E80FF91F62830196A0
:1002A0008F73907011968C930895DC012C9130E03F
:1002B000FC01E20FF31F82812F5F3F4F2F733070DD
:1002C0002C930895FC018181E0818E1710F08E1B24
:1002D0000895805C8E1B089521D15BDAE6DA46DA58
:1002E00073D4AED76DD9882359F080911401813031
:1002F00041F480E06091150146E151E04DD701C025
:100300007CD778944CD1E0D44AD19ED748D11FD421
:1003100046D1D3D9F7CFE82FF0E0E053FF4F8081EB
:1003200093818917B9F0891758F4292F281B9585CF
:10033000291718F0980F90830895280F20830895A7
:10034000282F291B9585291718F0891B808308956C
:10035000821B80830895E091870093E0E99FF0017C
:100360001124E859FF4F8083728361838091870055
:1003700090E001966AE070E0B9DA80938700089512
:10038000DC01E091860083E0E89FF0011124E85948
:10039000FF4F80818C938181928112969C938E93E2
:1003A00011978091860090E001966AE070E09EDAF5
:1003B000809386000895282F80918700882311F468
:1003C00089E001C0815090E0FC01EE0FFF1FE80FB3
:1003D000F91FE859FF4F208308958F929F92AF92A3
:1003E000BF92CF92DF92FF920F931F93CF93DF9331
:1003F0005C0164E6C62E60E0D62E960180E0782F80
:100400007F5F472F15C0C42FD0E0CC59DF4F6881E4
:10041000F9015081F501E60FF11DD501A50FB11DC0
:1004200090818C91981718F4F901608358834F5F7D
:10043000433048F32F5F3F4F872F733001F717E0AA
:1004400091E020E030E0F501E20FF31F80818B3076
:1004500018F0892F809518232F5F3F4F23303105E7
:1004600011F0990FF0CF812F68EE7DEF74DFFF243C
:1004700051E0852E912CF6018081C82FD0E0F50146
:10048000EC0FFD1F0081802F8B50843F58F5F4EB5B
:10049000FF1530F0053B20F0812F68EE7DEF5BDF2C
:1004A000F016B8F4C4010C2E02C0880F991F0A94EC
:1004B000E2F7182BCA0DDB1D8881E82FF0E0EE0F64
:1004C000FF1FEC5DFF4F65917491812F44DFF02E8B
:1004D00009C0C40102C0880F991FCA95E2F7182B02
:1004E000812F69DF0894C11CD11C87E6C81680E003
:1004F000D80609F0C0CFE4EBEF1520F0812F68EEAD
:100500007DEF29DFDF91CF911F910F91FF90DF9059
:10051000CF90BF90AF909F908F900895A3E0B0E0F0
:10052000E3E9F2E004CA88B3876088BB87B38760D9
:1005300087BB89E08EBD89B7886189BF80E09AEF6B
:100540009BBD8ABD88EE9DEF99BD88BD81E08093FB
:10055000DA008093DD008093DB008093DE008093DF
:10056000DC008093DF0000ED10E0C80136DFC80139
:1005700034DFCE01019604DF898180938F001092D1
:100580008E002396E4E0EFC9809187009091860069
:10059000891710F0891B0895865F891B089503C091
:1005A00080ED90E01ADFF0DF8530D0F30895A0E011
:1005B000B0E0ECEDF2E0B3C9EC01ED814E81EE2349
:1005C00019F44883498388C08B819C8168E671E077
:1005D00079D96C016CE370E075D92FEF30E0BC0184
:1005E000629FC001639F900D729F900D11244E96E3
:1005F0006CE370E067D97B01F0E0C9018E1B9F0BB3
:10060000042F10E0BC01609FC001619F900D709F9E
:10061000900D112480589F4F6FEF70E067D95B01F8
:10062000EE9EC001EF9E900DFE9E900D112480580D
:100630009F4F6FEF70E046D9C901861B970BBC0135
:10064000609FC001619F900D709F900D1124805894
:100650009F4F6FEF70E036D94B01C9018E199F098A
:10066000BC016E9FC0016F9F900D7E9F900D112465
:100670006FEF70E027D9261B370B209FC001219F09
:10068000900D309F900D11246FEF70E01BD99B01EE
:10069000C6016CE370E016D96230A9F0633028F42B
:1006A000662351F06130E9F40AC0643099F0643097
:1006B00070F06530B1F412C04883298302C088828B
:1006C0004983AA820EC0A88249832A830AC0A882CD
:1006D000898202C02883A9824A8303C04883A982F1
:1006E0008A82CDB7DEB7ECE036C91F93CF93DF9394
:1006F000FC01908181815281282F891708F4292FCC
:10070000322F251708F4352F36831582332301F154
:10071000981708F4892F482F581708F4452F132FDE
:10072000141BC12FD0E08FEF90E0BC01C69FC00129
:10073000C79F900DD69F900D1124232F2695632FD0
:1007400070E0820F911DD2D86583341729F44EC012
:1007500015821482138252C0512F569540812181F7
:100760003417B1F4822F90E02281821B91092CE38F
:1007700030E0BC01629FC001639F900D729F900D9D
:100780001124850F911DBE01B1D868597E4F30C02C
:1007900082813217A1F490E0841B91092CE330E0B0
:1007A000BC01629FC001639F900D729F900D112448
:1007B000850F911DBE019AD868587F4F19C0381710
:1007C000A9F4842F90E0821B91092CE330E0BC0156
:1007D000629FC001639F900D729F900D1124850F41
:1007E000911DBE0183D860517F4F02C060E070E070
:1007F000CB0168E671E066D894838383DF91CF9163
:100800001F910895E3EDF0E0DF01139783E00D9071
:1008100001928150E1F710928E000895681710F44C
:10082000861B0895681B862F08958F929F92BF9212
:10083000CF92DF92EF92FF920F931F93DF93CF93AC
:100840000F92CDB7DEB7B82EC62E00ED10E04801EE
:10085000DD24FF2490E0F401838160819983DEDF51
:100860009981F81610F4D92EF82E9F5F0894811CF8
:10087000911C933081F7ED2DF0E0E053FF4FB586EA
:10088000C286EE248F2C9924ED14C1F0F8018381E7
:100890006081C4DF882359F0682F70E08695940149
:1008A000280F311DC90122D8862F662309F481E063
:1008B0008C9D802D1124F8018287B586E3940F5F0B
:1008C0001F4FF3E0EF1601F70F90CF91DF911F91CB
:1008D0000F91FF90EF90DF90CF90BF909F908F90FF
:1008E00008959091D3008091D000981779F4909159
:1008F000D4008091D100981749F420E09091D50060
:100900008091D200981719F421E001C020E0822FD5
:100910000895E3EDF0E0DC0190818C91282F3327DE
:1009200027FD3095290F311D2F3F310521F01CF097
:100930002FEF30E004C037FF02C020E030E0219309
:10094000119680E0E63DF80739F7862F642F6DDFBA
:1009500010928E0008950F931F93CF93DF93EC01B5
:10096000162F042F83ED90E0C0DE888199812091BD
:10097000D6003091D700820F931F9093D7008093B9
:10098000D6009091D8008A81282F332727FD3095F3
:10099000290F311D2F3F310521F01CF02FEF30E0E2
:1009A00004C037FF02C020E030E02093D8009091CF
:1009B000D9008B81282F332727FD3095290F311D32
:1009C0002F3F310521F01CF02FEF30E004C037FF3E
:1009D00002C020E030E02093D90083ED90E0E7DD15
:1009E000812F602F22DF10928E00DF91CF911F9117
:1009F0000F9108951F920F920FB60F9211240F932B
:100A00001F932F933F934F935F936F937F938F9396
:100A10009F93AF93BF93EF93FF93DF93CF9300D058
:100A20000F92CDB7DEB780918F0098B3987F982B47
:100A300098BB8E010F5F1F4F0AC08CB59DB5821702
:100A40009307D8F388B3887F9981892B88BBC80125
:100A500097DC8CB59DB52A813B818C599F4F281717
:100A6000390758F339BD28BD898180938F000F90D5
:100A70000F900F90CF91DF91FF91EF91BF91AF91C8
:100A80009F918F917F916F915F914F913F912F91A6
:100A90001F910F910F900FBE0F901F901895EF921E
:100AA000FF920F931F938C01862FF42E6091E1002B
:100AB000ACD0E82E8F2D6091E200A7D0682FF8010E
:100AC00080818093D30081818093D4008281809340
:100AD000D500662309F461E08E2DA7DE10928E000A
:100AE0001F910F91FF90EF900895CF92DF92EF92B8
:100AF000FF920F931F937C01862F142F6091E100CA
:100B000084D0C82E812F6091E2007FD0D82E06EDD0
:100B100010E0F70180819181A281B3818093D6009A
:100B20009093D700A093D800B093D900C80198D073
:100B3000C80103973CDD8C2D6D2D77DE10928E0061
:100B40001F910F91FF90EF90DF90CF900895EF925B
:100B5000FF920F931F93CF93DF93C0EDD0E008E88F
:100B600010E0FF24F394EE2480918E008F2169F031
:100B7000C8011DD6882349F08E2DCDDB8F2D8095A1
:100B800090918E00892380938E0080918E008F211A
:100B900071F498818B81981751F06A85662339F03A
:100BA000C801FFD580918E008F2980938E00E39439
:100BB00021960E5F1F4F83E0E81611F0FF0CD4CF93
:100BC000CDB7DEB7E6E0CDC6A298AA9AA39AAB98B5
:100BD0008FEF8093E5008093E6008A9892989A9927
:100BE00003C081E08093E70008958091000188238D
:100BF00011F48A9A9298089580910001882321F037
:100C00008A989298109200010895482F67FF10C0AB
:100C1000282F30E0862F992787FD90959095819514
:100C20009F4F8217930714F041E010C0460F0EC08B
:100C3000662361F0772767FD7095680F711D6F3F20
:100C4000710519F010F04FEF01C0462F842F089561
:100C5000689FC00111246FEF70E034D6CB01089576
:100C60000F931F938C01FC01808191812091E300FF
:100C70003091E400820F931F918380838281609181
:100C8000E500E6DFF801828383816091E600E0DF22
:100C9000F80183831F910F910895189582E691E0E2
:100CA00011DB8823D9F75D9BF9CF08951F93CF936C
:100CB000DF93EC0110E08991F2D51F5F1F30D9F767
:100CC000DF91CF911F910895A8E1B0E0E9E6F6E049
:100CD0002FC680E291E0F6DA882389F180E291E084
:100CE000E4DA182F8091F8008F3089F41093E00037
:100CF000812F8F5FD4D51092F70081E08093F900A7
:100D00001092FB001092FA001092E7000EC0812FA3
:100D1000C6D58091F7008F3040F4E82FF0E0E8511D
:100D2000FF4F10838F5F8093F7001B3131F4809168
:100D3000F8008F5F8093F80002C01092F800809155
:100D4000F900882309F473C18091FA009091FB00A7
:100D5000009729F08C3B910509F065C106C08CEB2A
:100D600090E09093FB008093FA008091F7008F3021
:100D700009F05DC19091E8008091E000981719F0AA
:100D80009F3F09F04DC18091E900873009F4B7C059
:100D9000883088F48330A9F1843030F4813009F14F
:100DA000823009F03DC125C0853009F46DC0863020
:100DB00008F08CC047C08A3009F4CAC08B3038F4C0
:100DC000883009F4A5C0893009F02AC1A9C08C3047
:100DD00009F4FDC08C3008F4D1C0803809F020C17E
:100DE000D8C08CEE90E06091EA004091EB0057DEB5
:100DF00017C18CEE90E06091EA004091EB0075DE47
:100E00000FC12091EA002C3308F00AC18091EB0059
:100E100089838091EC008A838091ED009091EE00AF
:100E20009C838B838FEF88878091EF008D838091E7
:100E3000F0008E838091F1008F83822FBE016F5F5F
:100E40007F4F42C02091EA002C3308F0E9C0809126
:100E5000EB0089878091EC008A878091ED0090916A
:100E6000EE009C878B878091EF009091F000988B2B
:100E70008F878091F1008D878091F2008E87822F7D
:100E8000BE01675F7F4F20C02091EA002C3308F03D
:100E9000C7C08091EB00898B8091EC008A8B809198
:100EA000ED009091EE009C8B8B8B8FEF888F809163
:100EB000D0008D8B8091D1008E8B8091D2008F8B52
:100EC000822FBE016F5E7F4FA6D3AAC08091EA0039
:100ED0008093E1008091EB008093E2008091EC0030
:100EE0009091ED009093E4008093E3008091EE00F8
:100EF0008093E5008091EF008093E60091C042D19D
:100F000081DC80E06091EA004BEE50E045D188C082
:100F100039D18091EA00882309F482C073DC80C053
:100F200080910101882309F47BC0DBDC882309F46C
:100F300077C08CEE90E06091EA004091EB00E9DC34
:100F40008FEE90E06091EA004091EB0004DD68C014
:100F50004CDE6091EA00662311F465E008C064335A
:100F600010F06FEF04C085E0689F602D11248EEFB4
:100F700090E017D482E08093000152C0A4E1B1E078
:100F8000EAEEF0E08CE001900D928150E1F7F5D2AD
:100F900047C08091EA008B3609F042C08091EB0097
:100FA000863509F03DC08091EC00873209F038C0E9
:100FB0008091ED008C3FA1F571DE2BE088E190E09F
:100FC0000FB6F894A89581BD0FBE21BD29C085B785
:100FD0008F78806285BF62DE98B325B332B347B3A2
:100FE00054B361B318BA15BA12BA17BA14BA11BA0F
:100FF00084E081BB82BB80E48ABF8BB780648BBFF7
:1010000085B7806885BF889585B78F7785BF8BB793
:101010008F7B8BBF98BB25BB32BB47BB54BB61BB2F
:101020001092F7009CCE1092FB001092FA00809173
:101030000001823029F48EEF90E0B9D38111DCDD1C
:101040008091E700882309F49AC08091FC00909178
:10105000FD008C3F9105C1F08D3F910518F4892B5F
:1010600059F089C021E08231920709F44DC08F51B7
:10107000914009F080C064C085E990E064E191D3BB
:1010800003C08CEF90E057C085E990E090D38823AF
:10109000C1F38FEF8093970087E08093980082E2FE
:1010A00092E09093920080939100109290005DC026
:1010B00069D0A8DBE0919100F09192003196F09315
:1010C0009200E09391003197E491E0939900AAE9AE
:1010D000B0E0E0919100F09192003196F09392008F
:1010E000E09391003197E491ED9380E0A43AB80742
:1010F00081F710E08BE1D3D31F5F1F30D9F781E078
:10110000CED382E191E017C087E990E0CFDD80E0A7
:10111000609199004AE950E03FD084E893E09093D1
:1011200094008093930011C085E990E064E639D380
:1011300007C08FE191E09093FD008093FC001FC0F9
:1011400085E990E034D38823A1F3809193009091B6
:10115000940001979093940080939300019621F757
:10116000809190008F5F80939000809190008230FA
:1011700008F095CF9DCF1092FD001092FC0068966C
:10118000E3E0F2C3109206011092050110920401EF
:1011900081E0809301010895633070F510920101A0
:1011A000282F30E0F90174E0EE0FFF1F7A95E1F788
:1011B000E21BF30BE95FFE4FDA018AE00D9001922A
:1011C0008150E1F7E62FF0E0EE0FFF1FE85CFD4FE6
:1011D00085919491F90144E0EE0FFF1F4A95E1F7E4
:1011E000E21BF30BEF5FFE4F9283818381E08583E7
:1011F00081E191E06AE0D5C20895AAE0B0E0E2E0C2
:10120000F9E097C387E190E09A8389838B818E7F91
:1012100082608B838CE38A878FEF8887898781E060
:101220008C8383E08D8384E690E09F838E8380E0CF
:1012300061E0AE014F5F5F4FAFDF2A96E2E095C3FA
:1012400081E191E064E1ADC2809101018823C1F4A4
:1012500081E191E0ACD2882399F080910601882346
:1012600059F0E0910201F091030182E091E00995CB
:10127000823014F01092060181E191E06AE091C29F
:101280000895A7E0B0E0E6E4F9E051C38C01FC0169
:1012900082819381009729F0823C910509F073C007
:1012A00066C0F80185818093AD001092AC008091FA
:1012B000AD0064EA70E095D18091AB008F3F89F476
:1012C0008091A80089838091A9008A838091AA00D7
:1012D0008B83CE0101966091A4004091A500DFDBD5
:1012E00013C08091AA009091AB009D838C83809164
:1012F000A8008E838091A9008F83CE01049660910F
:10130000A4004091A500F1DB8091AC009091AD006C
:101310008823D1F4F80186819817E1F48781813020
:1013200051F0813018F0823011F50AC0F8011382B3
:10133000128282E02CC0F80185818093AD0017C035
:1013400081E08093AC000AC0F8018581981731F4E0
:101350001092AC009F5F9093AD0009C09150FBCFFD
:1013600082EC90E0F8019383828381E010C0809149
:10137000A6009091A70001979093A7008093A600E4
:10138000019671F794CFF8011382128283E02796B9
:10139000E4E0E9C2CF93DF93EC018A819B81883737
:1013A000910509F44EC08F37910509F45CC0892B73
:1013B00009F065C06D817E818F8180FF05C08091BD
:1013C000E00090E06827792780E090E027D38D85C2
:1013D0008093B1008C858093B0001DD3DC01CB01DC
:1013E00068E671E06FD2BC018E85482F50E0411550
:1013F0005105B9F02091AE003091AF00261B370B9C
:1014000037FF03C0309521953F4F253B310534F020
:1014100088E691E0FC01E21BF30B9F0124173507DE
:10142000E4F27093AF006093AE008EEA90E06885BE
:1014300049855BDB8F8181FF07C088E790E09B8354
:101440008A834FDA8823F1F08A859B85009729F2F9
:101450009093B3008093B20006C08FE790E09B8327
:101460008A8381E00FC08091B2009091B300019710
:101470009093B3008093B200019679F7AECF1B82B0
:101480001A8283E0DF91CF910895CF93DF93EC012F
:101490008A819B818434910509F45DC0853491056E
:1014A00008F065C0009721F0CF9709F060C040C0F8
:1014B000488559855093B5004093B4008E8580933C
:1014C000B7008D858093B6002091E00030E08C85D8
:1014D000992787FD9095B901689F9001699F300D0C
:1014E000789F300D11248A859B85BC01269FC00101
:1014F000279F900D369F900D1124840F951F909378
:10150000B5008093B40084EB90E06D814E81EDDAFC
:101510008A859B852091B4003091B500820F931F7E
:101520009093B5008093B4008FE390E09B838A830F
:10153000D8D98823F9F08F812AE0829FC001112435
:101540009093B9008093B80006C084E490E09B8338
:101550008A8381E00FC08091B8009091B900019713
:101560009093B9008093B800019679F7CCCF1B8295
:101570001A8283E0DF91CF9108958091CE00882375
:10158000F1F483E280931301ABEBB0E0E3E1F1E02F
:101590008DE001900D928150E1F71092C8008DE02E
:1015A0008093CB0080E090E09093CA008093C900C4
:1015B00081E08093CE00109213018093BA000895C9
:1015C0008091BA00882319F480E090E0089590E0BB
:1015D00080911301833209F091E081E09827892FEF
:1015E00008959B01682F70E083E0660F771F8A954E
:1015F000E1F7635F7F4FC90148E050E018C2809176
:10160000BA00882339F083E191E060E070E04DE0BA
:1016100050E00DC20895982F8091CE008823E9F400
:10162000ABEBB0E0FB0188E001900D928150E1F757
:101630001092C80088E08093CB00892F90E023E0CF
:10164000880F991F2A95E1F7835F9F4F9093CA00F7
:101650008093C90081E08093CE0008950F931F937B
:10166000CF93DF93C0E0D0E080E090E08C010F5F8B
:101670001F4FEDD1C8278C2F82958C27082E869579
:1016800086958025082E8695802587700C2ECD2F77
:10169000869507948795D02DC82706948795D025E1
:1016A000C82781E00D3E180711F0C801DFCFCE0139
:1016B000DF91CF911F910F9108952091CE002223A9
:1016C00009F453C08091CC009091CD0084369105EF
:1016D000E1F18536910538F4009741F08E3591059A
:1016E00009F03FC020C08C369105D9F5213091F525
:1016F0007CDA1BC08091C9009091CA00019690933A
:10170000CA008093C90001972091C800E22FF0E041
:10171000E654FF4F61812F5F2093C800A5D103C01D
:101720008EE590E019C0E199FBCF8091CB0081500C
:101730008093CB008F5FF1F691DFBC018DEE91E0DD
:10174000A0D103C084E690E007C0E199FBCF54DA52
:101750001092CE008CE690E09093CD008093CC0068
:1017600008951092CD001092CC0008950F931F930E
:1017700075DF8C018DEE91E072D11092BA000817DE
:10178000190719F481E08093BA0039DF1F910F9196
:1017900008958CE983BD8FE085BD89B7806889BFD6
:1017A0000895FC018091CF00808361830895FC013E
:1017B0002181222311F481E008959091CF0080814E
:1017C000891711F480E00895215021838091CF0082
:1017D000808380E0089578941F920F920FB60F9245
:1017E00011248F938091CF008F5F8093CF008F91D2
:1017F0000F900FBE0F901F9018951F920F920FB66B
:101800000F9211242F933F934F935F936F937F9386
:101810008F939F93AF93BF93EF93FF9382E691E0F3
:1018200044D58CB982E691E04DD5882309F45598CA
:10183000FF91EF91BF91AF919F918F917F916F91A8
:101840005F914F913F912F910F900FBE0F901F907E
:1018500018951F920F920FB60F9211242F933F935A
:101860004F935F936F937F938F939F93AF93BF93A8
:10187000EF93FF936CB180E291E008D5FF91EF9177
:10188000BF91AF919F918F917F916F915F914F9198
:101890003F912F910F900FBE0F901F901895682FBA
:1018A00082E691E0F3D4559A089510BC83E389B998
:1018B00086E880BD88E98AB980E291E0E3D482E6D7
:1018C00091E0E0C4AA1BBB1B51E107C0AA1FBB1FCC
:1018D000A617B70710F0A61BB70B881F991F5A95BC
:1018E000A9F780959095BC01CD01089597FB092E2D
:1018F00007260AD077FD04D0E5DF06D000201AF4D1
:10190000709561957F4F0895F6F7909581959F4F5B
:1019100008952F923F924F925F926F927F928F9293
:101920009F92AF92BF92CF92DF92EF92FF920F936E
:101930001F93CF93DF93CDB7DEB7CA1BDB0B0FB678
:10194000F894DEBF0FBECDBF09942A883988488835
:101950005F846E847D848C849B84AA84B984C884CB
:10196000DF80EE80FD800C811B81AA81B981CE0FC2
:10197000D11D0FB6F894DEBF0FBECDBFED010895A7
:10198000A0E0B0E0E5ECFCE0CCCFEC01A880B980B1
:10199000CA80DB80A114B104C104D10441F484E203
:1019A000A82E89EDB82E8BE5C82E87E0D82EC6016B
:1019B000B5012DE133EF41E050E085D027EA31E475
:1019C00040E050E061D07B018C01C601B5012DE102
:1019D00033EF41E050E077D0CA01B9012CEE34EF8B
:1019E0004FEF5FEF51D06E0D7F1D801F911F97FF4E
:1019F00004C06150704080409048688379838A8336
:101A00009B839B01AC015F77B901CA01CDB7DEB7FB
:101A1000EAE0A3CFB5CF80E690E0B2CF609360005C
:101A20007093610080936200909363000895DC01DD
:101A3000CB01FC01E199FECF06C0FFBBEEBBE09AF3
:101A400031960DB20D9241505040B8F70895E1998A
:101A5000FECF9FBB8EBBE09A99278DB30895A8E176
:101A6000B0E042E050E0E5CF262FE199FECF9FBBEA
:101A70008EBB2DBB0FB6F894E29AE19A0FBE019689
:101A80000895F2DF272FF1CF629FD001739FF001FD
:101A9000829FE00DF11D649FE00DF11D929FF00DFE
:101AA000839FF00D749FF00D659FF00D9927729F35
:101AB000B00DE11DF91F639FB00DE11DF91FBD01C0
:101AC000CF011124089597FB092E05260ED057FD4E
:101AD00004D014D00AD0001C38F4509540953095AD
:101AE00021953F4F4F4F5F4F0895F6F790958095A2
:101AF000709561957F4F8F4F9F4F0895A1E21A2EE9
:101B0000AA1BBB1BFD010DC0AA1FBB1FEE1FFF1FA1
:101B1000A217B307E407F50720F0A21BB30BE40BF1
:101B2000F50B661F771F881F991F1A9469F7609538
:101B30007095809590959B01AC01BD01CF010895F2
:041B4000F894FFCF47
:081B4400010000000001020095
:101C000000C011241FBECFE5D4E0DEBFCDBF14BE9F
:101C100088E10FB6F89481BD11BC0FBE10E0A0E6BC
:101C2000B0E0E6ECFFE102C005900D92A036B107EE
:101C3000D9F712E0A0E6B0E001C01D92AC37B107C1
:101C4000E1F732D0BEC1DCCF8627282F2295282786
:101C5000022E269526952025022E269520252770D2
:101C6000082E892F269507942795902D8227069474
:101C700027959025822708955D9BFECF8CB9089506
:101C800018BA17BA12BA11BA10BC19B880E48BB9D5
:101C90001AB81EBC1BBC1ABC1DBC1CBC88B788BFB4
:101CA000E0E0F0E0099508958DE093E09BBD8ABDEA
:101CB0008DE08EBDE0E0F0E0859194918F5F9F4FC5
:101CC00031F0929A8CB58230E8F3829970C110BCE1
:101CD00083E389B986E880BD88E18AB987E087BB5C
:101CE00077247394DD24D394A3E06A2EF5E0BF2E0D
:101CF000E1E1AE2E72E0972E60E1862E54E0C52E13
:101D00005F9B27C01CB1809162008F3051F410930B
:101D10006300812F8F5FB0DF10926800D092610066
:101D20000EC0812FA9DF809168008F3040F4E82F2A
:101D3000F0E0EF59FF4F10878F5F809368001B31F1
:101D400031F4809162008F5F8093620002C0109234
:101D5000620080916100882309F400C180916800CD
:101D60008F3009F0FBC09091690080916300981753
:101D700019F09F3F09F0F0C080916A00843809F49F
:101D800042C0853840F48238C9F08338E0F48138A5
:101D900009F0D8C00AC0863809F478C0863808F43B
:101DA0004EC0873809F0CEC0C9C080916B009091B9
:101DB0006C0090937B0080937A00C4C010927900ED
:101DC00010927800BFC02091780030917900C9014D
:101DD0000D968150924010F40DE002C0022F019543
:101DE00010E0C90184589F4F6BE670E0A801E0D075
:101DF0008091780090917900080F191F1093790055
:101E0000009378009FC0C0916B00D0916C000CE7EC
:101E100010E02FEF3FEF07C0F80161918F01C9017A
:101E200013DF9C0121972097B9F780916D00909165
:101E30006E002817390739F180916F001FC000919B
:101E40006B0010916C00C0916D00D0916E002FEF6F
:101E50003FEF09C0F8010F5F1F4FE491C9016E2FDA
:101E6000F3DE9C0121972097A9F780916F00909154
:101E700070002817390739F0809171008093650050
:101E8000109264005FC0D09264005CC08A9A009196
:101E90007A0010917B0080917800909179009C01EC
:101EA00046E0369527954A95E1F78F739070892B18
:101EB00009F02F5FB801ACE7B0E030E086E0220F18
:101EC000331F8A95E1F77D01E20EF31E2CC0C19A03
:101ED000FB0160925700E89507B600FCFDCFED01CD
:101EE00040E050E0FB01E40FF51F899199910C014E
:101EF00070925700E895112407B600FCFDCF4E5FA5
:101F00005F4F4034510571F7A05CBF4FFB01B092A9
:101F10005700E89507B600FCFDCFA0925700E89562
:101F2000C198605C7F4FAE15BF0589F6020F131F85
:101F300010937B0000937A008A9804C0D0926600C8
:101F40009092670080916500882331F08091640051
:101F5000882311F48A9AC09A1092680008B604FE89
:101F6000CFCE88BE809160008F5F809360008150EB
:101F7000843129F488B38C2588BB109260008A9B39
:101F800009C080916500815080936500882311F419
:101F90008A98C09880916600882309F4B1CE809118
:101FA00067008150809367008F5F09F0A9CE68DEDB
:101FB000FB01DC0102C001900D9241505040D8F766
:061FC0000895F894FFCF24
:0400000300001C00DD
:00000001FF
