:1000000025C161C647C146C145C144C143C1FDCBFD
:1000100041C140C13FC1FEC4FDC43CC13BC13AC166
:1000200039C138C135CC03CC35C134C133C132C13B
:1000300031C130C10200080012001F00310047002A
:1000400060007E009F00C500EE001B014D01820193
:10005000BB01F80139027E02C70213036403B9032E
:1000600011046E04CE0433059B0507067706EC06E3
:100070006407E0076008E4086B09F709870A1A0BB0
:10008000B20B4E0CED0C900D380EE30E920F451096
:10009000FC10B711761239130014CB1499156C1695
:1000A00043171D18FC18DE19C41AAF1B9D1C8F1DA9
:1000B000851E7F1F7D207F2184228E239C24AE25D8
:1000C000C326DD27FA281B2A412B6A2C972DC82E20
:1000D000FD2F36317332B433F93442368E37DF3880
:1000E000333A8C3BE83C493EAD3F15418142F143F8
:1000F0006545DD465948D9495D4BE54C704E005089
:1001000094512B53C65466560958B0595B5B0B5D2E
:10011000BE5E75602F62EE63B16578674269116BF0
:10012000E46CBA6E9470737255743B762578137ACA
:10013000067CFB7DF57FF381F583FB850488128ABD
:10014000238C398E529070929194B696DF980C9BC6
:100150003D9D729FABA1E8A329A66DA8B6AA03ADE9
:1001600053AFA8B100B45CB6BDB821BB89BDF5BF23
:1001700065C2D9C451C7CDC94CCCD0CE58D1E3D378
:1001800073D606D99EDB39DED8E07BE322E6CEE8E3
:100190007DEB2FEEE6F0A1F360F623F9E901B4045C
:1001A0008207550A2B0D0510E412C615AC18961BD4
:1001B000841E76216C246527632A652D6A3074338A
:1001C00082369339A83CC23FDF42004625494E4C57
:1001D0007B4FAC52E1551A59565C975FDC6224663E
:1001E0007169C16C15706E73CA762A7A8E7DF6803D
:1001F0006284D287468BBE8E3992B9953D99C49C54
:1002000050A0DFA372A70AABA5AE44B2E7B58EB982
:1002100039BDE8C09BC452C80CCCCBCF8ED354D7C9
:100220001FDBEDDEBFE296E670EA4EEE30F216F628
:100230000001020000001400FFFFFF0001020000A7
:1002400000140001FFFF5B0AE009570911241FBEDB
:10025000CFEFD4E0DEBFCDBF14BE88E10FB6F89477
:1002600080936000109260000FBE11E0A0E0B1E04A
:10027000E6E9FBE102C005900D92A830B107D9F77D
:1002800012E0A8E0B1E001C01D92A434B107E1F78B
:100290002CD07FCCB5CEFC01108211820895DC01F8
:1002A00011968C91119790E0FD01E80FF91F628380
:1002B00001968F73907011968C930895DC012C91A8
:1002C00030E0FC01E20FF31F82812F5F3F4F2F735D
:1002D00030702C930895FC018181E0818E1710F01D
:1002E0008E1B0895805C8E1B089521D168DA01DB96
:1002F00053DA80D4BBD77AD9882359F08091B401DE
:10030000813041F480E06091B50146EB51E05AD76D
:1003100001C089D7789453D1EFD451D1ABD74FD105
:100320002CD44DD1E0D9F7CFE82FF0E0E059FE4FC3
:10033000808193818917B9F0891758F4292F281BD8
:100340009585291718F0980F90830895280F20831A
:100350000895282F291B9585291718F0891B80835C
:100360000895821B80830895E091270193E0E99F1F
:10037000F0011124E85FFE4F8083728361838091D6
:10038000270190E001966AE070E0D8DA80932701B7
:100390000895DC01E091260183E0E89FF00111243B
:1003A000E85FFE4F80818C938181928112969C93AD
:1003B0008E9311978091260190E001966AE070E09B
:1003C000BDDA809326010895282F80912701882384
:1003D00011F489E001C0815090E0FC01EE0FFF1F95
:1003E000E80FF91FE85FFE4F208308958F929F92D8
:1003F000AF92BF92CF92DF92FF920F931F93CF9352
:10040000DF935C0164E0C62E61E0D62E960180E0A9
:10041000782F7F5F472F15C0C42FD0E0CC5FDE4F11
:100420006881F9015081F501E60FF11DD501A50F95
:10043000B11D90818C91981718F4F901608358834D
:100440004F5F433048F32F5F3F4F872F733001F7E3
:1004500017E091E020E030E0F501E20FF31F80812A
:100460008B3018F0892F809518232F5F3F4F233052
:10047000310511F0990FF0CF812F68EE7DEF74DF19
:10048000FF2451E0852E912CF6018081C82FD0E009
:10049000F501EC0FFD1F0081802F8B50843F58F534
:1004A000F4EBFF1530F0053B20F0812F68EE7DEF77
:1004B0005BDFF016B8F4C4010C2E02C0880F991F40
:1004C0000A94E2F7182BCA0DDB1D8881E82FF0E0B3
:1004D000EE0FFF1FEE5CFF4F65917491812F44DF9B
:1004E000F02E09C0C40102C0880F991FCA95E2F717
:1004F000182B812F69DF0894C11CD11C87E0C81616
:1005000081E0D80609F0C0CFE4EBEF1520F0812F91
:1005100068EE7DEF29DFDF91CF911F910F91FF9062
:10052000DF90CF90BF90AF909F908F900895A3E001
:10053000B0E0ECE9F2E023CA85B1876085B984B107
:10054000876084B989E080938100EFE6F0E08081E4
:100550008660808380E09AEF909389008093880082
:1005600088EE9DEF90938B0080938A0081E08093CA
:100570007A0180937D0180937B0180937E0180933B
:100580007C0180937F0100E711E0C8012FDFC801E3
:100590002DDFCE010196FDDE898180932F0110921F
:1005A0002E012396E4E007CA80912701909126014D
:1005B000891710F0891B0895865F891B089503C071
:1005C00080E791E013DFF0DF8530D0F30895A0E0FD
:1005D000B0E0ECEEF2E0CBC9EC01ED814E81EE2310
:1005E00019F44883498388C08B819C8168E671E057
:1005F00091D96C016CE370E08DD92FEF30E0BC0134
:10060000629FC001639F900D729F900D11244E96C2
:100610006CE370E07FD97B01F0E0C9018E1B9F0B7A
:10062000042F10E0BC01609FC001619F900D709F7E
:10063000900D112480589F4F6FEF70E07FD95B01C0
:10064000EE9EC001EF9E900DFE9E900D11248058ED
:100650009F4F6FEF70E05ED9C901861B970BBC01FD
:10066000609FC001619F900D709F900D1124805874
:100670009F4F6FEF70E04ED94B01C9018E199F0952
:10068000BC016E9FC0016F9F900D7E9F900D112445
:100690006FEF70E03FD9261B370B209FC001219FD1
:1006A000900D309F900D11246FEF70E033D99B01B6
:1006B000C6016CE370E02ED96230A9F0633028F4F3
:1006C000662351F06130E9F40AC0643099F0643077
:1006D00070F06530B1F412C04883298302C088826B
:1006E0004983AA820EC0A88249832A830AC0A882AD
:1006F000898202C02883A9824A8303C04883A982D1
:100700008A82CDB7DEB7ECE04EC91F93CF93DF935B
:10071000FC01908181815281282F891708F4292FAB
:10072000322F251708F4352F36831582332301F134
:10073000981708F4892F482F581708F4452F132FBE
:10074000141BC12FD0E08FEF90E0BC01C69FC00109
:10075000C79F900DD69F900D1124232F2695632FB0
:1007600070E0820F911DEAD86583341729F44EC0DA
:1007700015821482138252C0512F569540812181D7
:100780003417B1F4822F90E02281821B91092CE36F
:1007900030E0BC01629FC001639F900D729F900D7D
:1007A0001124850F911DBE01C9D868597E4F30C0F4
:1007B00082813217A1F490E0841B91092CE330E090
:1007C000BC01629FC001639F900D729F900D112428
:1007D000850F911DBE01B2D868587F4F19C03817D8
:1007E000A9F4842F90E0821B91092CE330E0BC0136
:1007F000629FC001639F900D729F900D1124850F21
:10080000911DBE019BD860517F4F02C060E070E037
:10081000CB0168E671E07ED894838383DF91CF912A
:100820001F910895E3E7F1E0DF01139783E00D9056
:1008300001928150E1F710922E010895681710F48B
:10084000861B0895681B862F08958F929F92BF92F2
:10085000CF92DF92EF92FF920F931F93DF93CF938C
:100860000F92CDB7DEB7B82EC62E00E711E04801D3
:10087000DD24FF2490E0F401838160819983DEDF31
:100880009981F81610F4D92EF82E9F5F0894811CD8
:10089000911C933081F7ED2DF0E0E059FE4FB586C5
:1008A000C286EE248F2C9924ED14C1F0F8018381C7
:1008B0006081C4DF882359F0682F70E08695940129
:1008C000280F311DC9013AD8862F662309F481E02B
:1008D0008C9D802D1124F8018287B586E3940F5FEB
:1008E0001F4FF3E0EF1601F70F90CF91DF911F91AB
:1008F0000F91FF90EF90DF90CF90BF909F908F90DF
:1009000008959091730180917001981779F49091F6
:10091000740180917101981749F420E0909175015C
:1009200080917201981719F421E001C020E0822F14
:100930000895E3E7F1E0DC0190818C91282F3327C3
:1009400027FD3095290F311D2F3F310521F01CF077
:100950002FEF30E004C037FF02C020E030E02193E9
:10096000119681E0E637F80739F7862F642F6DDF9F
:1009700010922E0108950F931F93CF93DF93EC01F4
:10098000162F042F83E791E0C0DE888199812091A2
:10099000760130917701820F931F909377018093B6
:1009A0007601909178018A81282F332727FD309591
:1009B000290F311D2F3F310521F01CF02FEF30E0C2
:1009C00004C037FF02C020E030E02093780190910E
:1009D00079018B81282F332727FD3095290F311D71
:1009E0002F3F310521F01CF02FEF30E004C037FF1E
:1009F00002C020E030E02093790183E791E0E7DD59
:100A0000812F602F22DF10922E01DF91CF911F9155
:100A10000F9108951F920F920FB60F9211240F930A
:100A20001F932F933F934F935F936F937F938F9376
:100A30009F93AF93BF93EF93FF93DF93CF9300D038
:100A40000F92CDB7DEB780912F0195B1987F982B8B
:100A500095B98E010F5F1F4F0CC08091840090915B
:100A6000850082179307C8F385B1887F9981892B08
:100A700085B9C8018EDC80918400909185002A811F
:100A80003B818C599F4F2817390738F330938B00DF
:100A900020938A00898180932F010F900F900F90EF
:100AA000CF91DF91FF91EF91BF91AF919F918F9186
:100AB0007F916F915F914F913F912F911F910F9176
:100AC0000F900FBE0F901F901895EF92FF920F930B
:100AD0001F938C01862FF42E60918101ACD0E82EFB
:100AE0008F2D60918201A7D0682FF80180818093BB
:100AF00073018181809374018281809375016623E3
:100B000009F461E08E2DA1DE10922E011F910F914C
:100B1000FF90EF900895CF92DF92EF92FF920F93A4
:100B20001F937C01862F142F6091810184D0C82EE1
:100B3000812F609182017FD0D82E06E711E0F70166
:100B400080819181A281B381809376019093770116
:100B5000A0937801B0937901C80198D0C801039798
:100B600036DD8C2D6D2D71DE10922E011F910F91AF
:100B7000FF90EF90DF90CF900895EF92FF920F9348
:100B80001F93CF93DF93C0E7D1E008E211E0FF2489
:100B9000F394EE2480912E018F2169F0C80121D6B3
:100BA000882349F08E2DC0DB8F2D809590912E01EA
:100BB000892380932E0180912E018F2171F49881D9
:100BC0008B81981751F06A85662339F0C80103D6E6
:100BD00080912E018F2980932E01E39421960E5F40
:100BE0001F4F83E0E81611F0FF0CD4CFCDB7DEB76E
:100BF000E6E0DFC63A98429A3B9A43988FEF80939B
:100C000085018093860152985A98329903C081E0F9
:100C10008093870108958091A001882311F4529A4E
:100C20005A9808958091A001882321F052985A98EB
:100C30001092A0010895482F67FF10C0282F30E0C0
:100C4000862F992787FD9095909581959F4F8217C4
:100C5000930714F041E010C0460F0EC0662361F008
:100C6000772767FD7095680F711D6F3F710519F04B
:100C700010F04FEF01C0462F842F0895689FC001E8
:100C800011246FEF70E046D6CB0108950F931F93A8
:100C90008C01FC018081918120918301309184013C
:100CA000820F931F91838083828160918501E6DFAB
:100CB000F8018283838160918601E0DFF8018383FC
:100CC0001F910F910895189582E092E004DB88232C
:100CD000D9F78091C00085FFF7CF08951F93CF9378
:100CE000DF93EC0110E08991FAD51F5F1F30D9F72F
:100CF000DF91CF911F910895A8E1B0E0E1E8F6E01F
:100D00003FC680EC91E0E7DA882389F180EC91E03E
:100D1000D5DA182F809198018F3089F410938001D3
:100D2000812F8F5FDCD51092970181E0809399012C
:100D300010929B0110929A01109287010EC0812F90
:100D4000CED5809197018F3040F4E82FF0E0E8573E
:100D5000FE4F10838F5F809397011B3131F4809198
:100D600098018F5F8093980102C010929801809142
:100D70009901882309F471C180919A0190919B0196
:100D8000009729F08C3B910509F063C106C08CEBFC
:100D900090E090939B0180939A01809197018F300E
:100DA00009F05BC19091880180918001981719F03A
:100DB0009F3F09F04BC180918901873009F4B7C08A
:100DC000883088F48330A9F1843030F4813009F11F
:100DD000823009F03BC125C0853009F46DC08630F2
:100DE00008F08CC047C08A3009F4CAC08B3038F490
:100DF000883009F4A5C0893009F028C1A9C08C3019
:100E000009F4FFC08C3008F4D1C0803809F01EC14D
:100E1000D8C08CE891E060918A0140918B0155DE49
:100E200015C18CE891E060918A0140918B0173DEDD
:100E30000DC120918A012C3308F008C180918B01EB
:100E4000898380918C018A8380918D0190918E019C
:100E50009C838B838FEF888780918F018D83809116
:100E600090018E83809191018F83822FBE016F5FED
:100E70007F4F42C020918A012C3308F0E7C0809157
:100E80008B01898780918C018A8780918D01909157
:100E90008E019C878B8780918F0190919001988B18
:100EA0008F87809191018D87809192018E87822F0B
:100EB000BE01675F7F4F20C020918A012C3308F06C
:100EC000C5C080918B01898B80918C018A8B809128
:100ED0008D0190918E019C8B8B8B8FEF888F8091F1
:100EE00070018D8B809171018E8B809172018F8B3F
:100EF000822FBE016F5E7F4FA4D3A8C080918A016C
:100F00008093810180918B018093820180918C017B
:100F100090918D01909384018093830180918E0143
:100F20008093850180918F01809386018FC040D18D
:100F300079DC80E060918A014BE851E043D186C0C2
:100F400037D180918A01882309F480C06BDC7EC090
:100F50008091A101882309F479C0D3DC882309F4A6
:100F600075C08CE891E060918A0140918B01E1DCD1
:100F70008FE891E060918A0140918B01FCDC66C0B2
:100F80004ADE60918A01662311F465E008C064338B
:100F900010F06FEF04C085E0689F602D11248EE98A
:100FA00091E019D482E08093A00150C0A4EBB1E09D
:100FB000EAE8F1E08CE001900D928150E1F7F3D284
:100FC00045C080918A018B3609F040C080918B0129
:100FD000863509F03BC080918C01873209F036C01C
:100FE00080918D018C3F91F56FDE2BE088E190E0E0
:100FF0000FB6F894A895809360000FBE2093600010
:1010000025C083B7817F846083BF5EDE95B128B140
:101010003BB144B157B16AB115B818B81BB814B890
:1010200017B81AB884E08AB98BB981E08CBBE89A0A
:1010300083B7816083BF889583B78E7F83BFE8982D
:1010400095B928B93BB944B957B96AB91092970113
:101050009ECE10929B0110929A018091A001823045
:1010600029F48EE991E0BDD38111DCDD8091870107
:10107000882309F49AC080919C0190919D018C3F36
:101080009105C1F08D3F910518F4892B59F089C065
:1010900021E08231920709F44DC08F51914009F04F
:1010A00080C064C085E391E064E195D303C08CEF18
:1010B00090E057C085E391E094D38823C1F38FEF8C
:1010C0008093370187E08093380180E392E090932A
:1010D000320180933101109230015DC069D0A2DBF2
:1010E000E0913101F09132013196F0933201E093B9
:1010F00031013197E491E0933901AAE3B1E0E09145
:101100003101F09132013196F0933201E0933101D7
:101110003197E491ED9381E0A434B80781F710E0B2
:101120008BE1DDD31F5F1F30D9F781E0D8D382E197
:1011300091E017C087E391E0D1DD80E06091390153
:101140004AE351E03FD084E893E0909334018093E8
:10115000330111C085E391E064E63DD307C08FE120
:1011600091E090939D0180939C011FC085E391E0E5
:1011700038D38823A1F380913301909134010197F2
:101180009093340180933301019621F780913001CF
:101190008F5F8093300180913001823008F095CFCD
:1011A0009DCF10929D0110929C016896E3E004C4CB
:1011B0001092A6011092A5011092A40181E08093E3
:1011C000A1010895633070F51092A101282F30E03D
:1011D000F90174E0EE0FFF1F7A95E1F7E21BF30BC4
:1011E000E955FE4FDA018AE00D9001928150E1F756
:1011F000E62FF0E0EE0FFF1FEA5BFD4F8591949123
:10120000F90144E0EE0FFF1F4A95E1F7E21BF30BF3
:10121000EF55FE4F9283818381E0858381EB91E0DE
:101220006AE0D9C20895AAE0B0E0E8E1F9E0A9C314
:1012300087E190E09A8389838B818E7F82608B83A4
:101240008CE38A878FEF8887898781E08C8383E0AE
:101250008D8384E690E09F838E8380E061E0AE0121
:101260004F5F5F4FAFDF2A96E2E0A7C381EB91E0CB
:1012700064E1B1C28091A1018823C1F481EB91E0C6
:10128000B0D2882399F08091A601882359F0E0918B
:10129000A201F091A30182EA91E00995823014F055
:1012A0001092A60181EB91E06AE095C20895A7E053
:1012B000B0E0ECE5F9E063C38C01FC01828193812D
:1012C000009729F0823C910509F073C066C0F801CF
:1012D000858180934D0110924C0180914D0164E411
:1012E00071E095D180914B018F3F89F48091480145
:1012F0008983809149018A8380914A018B83CE0141
:1013000001966091440140914501DFDB13C080915B
:101310004A0190914B019D838C83809148018E837B
:10132000809149018F83CE010496609144014091E0
:101330004501F1DB80914C0190914D018823D1F45E
:10134000F80186819817E1F48781813051F081306E
:1013500018F0823011F50AC0F8011382128282E07F
:101360002CC0F801858180934D0117C081E08093E6
:101370004C010AC0F8018581981731F410924C0194
:101380009F5F90934D0109C09150FBCF82EC90E09C
:10139000F8019383828381E010C08091460190918F
:1013A000470101979093470180934601019671F799
:1013B00094CFF8011382128283E02796E4E0FBC207
:1013C000CF93DF93EC018A819B818837910509F4E3
:1013D0004EC08F37910509F45CC0892B09F065C0B8
:1013E0006D817E818F8180FF05C08091800190E0BA
:1013F0006827792780E090E039D38D85809351016B
:101400008C85809350012FD3DC01CB0168E671E01D
:1014100081D2BC018E85482F50E041155105B9F0AD
:1014200020914E0130914F01261B370B37FF03C02F
:10143000309521953F4F253B310534F088E691E00A
:10144000FC01E21BF30B9F0124173507E4F27093B4
:101450004F0160934E018EE491E0688549855BDB26
:101460008F8181FF07C088E790E09B838A8349DAF8
:101470008823F1F08A859B85009729F29093530188
:101480008093520106C08FE790E09B838A8381E0BE
:101490000FC0809152019091530101979093530195
:1014A00080935201019679F7AECF1B821A8283E0B6
:1014B000DF91CF910895CF93DF93EC018A819B81D7
:1014C0008434910509F45DC08534910508F065C048
:1014D000009721F0CF9709F060C040C0488559853A
:1014E00050935501409354018E85809357018D850B
:1014F000809356012091800130E08C85992787FDEB
:101500009095B901689F9001699F300D789F300DCB
:1015100011248A859B85BC01269FC001279F900DC1
:10152000369F900D1124840F951F90935501809341
:10153000540184E591E06D814E81EDDA8A859B85C9
:101540002091540130915501820F931F90935501C2
:10155000809354018FE390E09B838A83D2D98823C0
:10156000F9F08F812AE0829FC001112490935901E4
:101570008093580106C084E490E09B838A8381E0D5
:101580000FC0809158019091590101979093590192
:1015900080935801019679F7CCCF1B821A8283E0A1
:1015A000DF91CF91089580916E018823F1F483E259
:1015B0008093B301ABE5B1E0E3EBF1E08DE00190A6
:1015C0000D928150E1F7109268018DE080936B01DC
:1015D00080E090E090936A018093690181E08093BC
:1015E0006E011092B30180935A01089580915A01BF
:1015F000882319F480E090E0089590E08091B30191
:10160000833209F091E081E09827892F08959B01AA
:10161000682F70E083E0660F771F8A95E1F7635FBC
:101620007F4FC90148E050E02AC280915A018823C7
:1016300039F083EB91E060E070E04DE050E01FC2D4
:101640000895982F80916E018823E9F4ABE5B1E00D
:10165000FB0188E001900D928150E1F71092680142
:1016600088E080936B01892F90E023E0880F991F19
:101670002A95E1F7835F9F4F90936A0180936901F8
:1016800081E080936E0108950F931F93CF93DF93B2
:10169000C0E0D0E080E090E08C010F5F1F4FFFD1F1
:1016A000C8278C2F82958C27082E869586958025B5
:1016B000082E8695802587700C2ECD2F8695079451
:1016C0008795D02DC82706948795D025C82781E017
:1016D0000D3E180711F0C801DFCFCE01DF91CF9189
:1016E0001F910F91089520916E01222309F453C098
:1016F00080916C0190916D0184369105E1F1853600
:10170000910538F4009741F08E35910509F03FC0FE
:1017100020C08C369105D9F5213091F57CDA1BC0BB
:101720008091690190916A01019690936A0180937A
:101730006901019720916801E22FF0E0E65AFE4F1F
:1017400061812F5F20936801B7D103C08EE590E0DF
:1017500019C0F999FBCF80916B01815080936B0187
:101760008F5FF1F691DFBC018DEE91E0B3D103C044
:1017700084E690E007C0F999FBCF54DA10926E012D
:101780008CE690E090936D0180936C010895109227
:101790006D0110926C0108950F931F9375DF8C01FA
:1017A0008DEE91E084D110925A010817190719F4AF
:1017B00081E080935A0139DF1F910F9108958CE9E0
:1017C0008093B30092E09093B00087E08093B100E3
:1017D000909370000895FC0180916F018083618374
:1017E0000895FC012181222311F481E00895909154
:1017F0006F018081891711F480E0089521502183C1
:1018000080916F01808380E0089578941F920F92F9
:101810000FB60F9211248F9380916F018F5F809389
:101820006F018F910F900FBE0F901F9018951F9210
:101830000F920FB60F9211242F933F934F935F9304
:101840006F937F938F939F93AF93BF93EF93FF9388
:1018500082E092E033D58093C60082E092E03BD5EF
:10186000882329F48091C1008F7D8093C100FF916E
:10187000EF91BF91AF919F918F917F916F915F9108
:101880004F913F912F910F900FBE0F901F90189581
:101890001F920F920FB60F9211242F933F934F93E5
:1018A0005F936F937F938F939F93AF93BF93EF93C8
:1018B000FF936091C60080EC91E0F1D4FF91EF912D
:1018C000BF91AF919F918F917F916F915F914F9158
:1018D0003F912F910F900FBE0F901F901895682F7A
:1018E00082E092E0DCD4E1ECF0E0808180628083F1
:1018F00008951092C50083E38093C40086E080932E
:10190000C20088E98093C10080EC91E0C4D482E0F9
:1019100092E0C1C4AA1BBB1B51E107C0AA1FBB1F99
:10192000A617B70710F0A61BB70B881F991F5A956B
:10193000A9F780959095BC01CD01089597FB092EDC
:1019400007260AD077FD04D0E5DF06D000201AF480
:10195000709561957F4F0895F6F7909581959F4F0B
:1019600008952F923F924F925F926F927F928F9243
:101970009F92AF92BF92CF92DF92EF92FF920F931E
:101980001F93CF93DF93CDB7DEB7CA1BDB0B0FB628
:10199000F894DEBF0FBECDBF09942A8839884888E5
:1019A0005F846E847D848C849B84AA84B984C8847B
:1019B000DF80EE80FD800C811B81AA81B981CE0F72
:1019C000D11D0FB6F894DEBF0FBECDBFED01089557
:1019D000A0E0B0E0EDEEFCE0CCCFEC01A880B98057
:1019E000CA80DB80A114B104C104D10441F484E2B3
:1019F000A82E89EDB82E8BE5C82E87E0D82EC6011B
:101A0000B5012DE133EF41E050E086D027EA31E423
:101A100040E050E062D07B018C01C601B5012DE1B0
:101A200033EF41E050E078D0CA01B9012CEE34EF39
:101A30004FEF5FEF52D06E0D7F1D801F911F97FFFC
:101A400004C06150704080409048688379838A83E5
:101A50009B839B01AC015F77B901CA01CDB7DEB7AB
:101A6000EAE0A3CFB5CF80E091E0B2CF6093000170
:101A70007093010180930201909303010895DC01AA
:101A8000CB01FC01F999FECF06C0F2BDE1BDF89A89
:101A9000319600B40D9241505040B8F70895F9992D
:101AA000FECF92BD81BDF89A992780B50895A8E12F
:101AB000B0E042E050E0E5CF262FF999FECF1FBA03
:101AC00092BD81BD20BD0FB6F894FA9AF99A0FBE67
:101AD00001960895F1DF272FF0CF629FD001739F09
:101AE000F001829FE00DF11D649FE00DF11D929FBA
:101AF000F00D839FF00D749FF00D659FF00D9927F9
:101B0000729FB00DE11DF91F639FB00DE11DF91F1C
:101B1000BD01CF011124089597FB092E05260ED093
:101B200057FD04D014D00AD0001C38F450954095CD
:101B3000309521953F4F4F4F5F4F0895F6F79095A1
:101B40008095709561957F4F8F4F9F4F0895A1E2CB
:101B50001A2EAA1BBB1BFD010DC0AA1FBB1FEE1F27
:101B6000FF1FA217B307E407F50720F0A21BB30B72
:101B7000E40BF50B661F771F881F991F1A9469F7EE
:101B800060957095809590959B01AC01BD01CF014A
:061B90000895F894FFCF58
:081B9600010000000001020043
:101C000000C011241FBECFEFD4E0DEBFCDBF14BE95
:101C100088E10FB6F89480936000109260000FBEC8
:101C200011E0A0E0B1E0E4EFFFE102C005900D9209
:101C3000A030B107D9F713E0A0E0B1E001C01D92D8
:101C4000AC31B107E1F73FD0D3C1DACF8627282FD7
:101C500022952827022E269526952025022E2695A8
:101C600020252770082E892F269507942795902DDB
:101C7000822706942795902582270895982F809192
:101C8000C00085FFFCCF9093C600089515B814B826
:101C90001BB81AB81092C5001092C40080E480935B
:101CA000C0001092C1001092810010928900109221
:101CB0008800109285001092840086B386BBE0E015
:101CC000F0E0099508958DE093E09093890080936A
:101CD00088008DE080938100E0E0F0E085919491B0
:101CE0008F5F9F4F39F05A9A809184008230E0F3E1
:101CF0004A9974C11092C50083E38093C40086E0C2
:101D00008093C20088E18093C10087E084B9992460
:101D10009394DD24D394F3E08F2EE5E07E2E71E1E1
:101D2000B72E62E0C62E54E0A52E8091C00087FF3A
:101D300028C01091C600809102018F3051F4109399
:101D40000301812F8F5F9ADF10920801D092010169
:101D50000EC0812F93DF809108018F3040F4E82F6F
:101D6000F0E0EF5FFE4F10878F5F809308011B311B
:101D700031F4809102018F5F8093020102C01092C2
:101D8000020180910101882309F400C180910801BA
:101D90008F3009F0FBC090910901809103019817E1
:101DA00019F09F3F09F0F0C080910A01843809F4CE
:101DB00042C0853840F48238C9F08338E0F4813875
:101DC00009F0D8C00AC0863809F478C0863808F40B
:101DD0004EC0873809F0CEC0C9C080910B019091E8
:101DE0000C0190931B0180931A01C4C01092190139
:101DF00010921801BFC02091180130911901C9013A
:101E00000D968150924010F40DE002C0022F019512
:101E100010E0C901845E9E4F6BE071E0A801DFD045
:101E20008091180190911901080F191F1093190141
:101E3000009318019FC0C0910B01D0910C010CE1DF
:101E400011E02FEF3FEF07C0F80161918F01C90149
:101E5000FDDE9C0121972097B9F780910D019091AB
:101E60000E012817390739F180910F011FC0009129
:101E70000B0110910C01C0910D01D0910E012FEFBB
:101E80003FEF09C0F8010F5F1F4FE491C9016E2FAA
:101E9000DDDE9C0121972097A9F780910F01909199
:101EA00010012817390739F080911101809305013D
:101EB000109204015FC0D09204015CC0529A00915C
:101EC0001A0110911B0180911801909119019C0138
:101ED00046E0369527954A95E1F78F739070892BE8
:101EE00009F02F5FB801ACE1B1E030E086E0220FED
:101EF000331F8A95E1F77D01E20EF31E2CC0299A6B
:101F0000FB0180925700E89507B600FCFDCFED017C
:101F100040E050E0FB01E40FF51F899199910C011D
:101F200090925700E895112407B600FCFDCF4E5F54
:101F30005F4F4034510571F7A05CBF4FFB017092B9
:101F40005700E89507B600FCFDCFB0925700E89522
:101F50002998605C7F4FAE15BF0589F6020F131FED
:101F600010931B0100931A01529804C0D0920601ED
:101F7000C092070180910501882331F0809104010E
:101F8000882311F4529A289A10920801B19BCDCE61
:101F9000C6BA809100018F5F809300018150843127
:101FA00029F485B18A2585B910920001529B09C098
:101FB00080910501815080930501882311F4529886
:101FC000289880910601882309F4AFCE80910701FB
:101FD0008150809307018F5F09F0A7CE57DEFB0188
:101FE000DC0102C001900D9241505040D8F7089595
:041FF000F894FFCF93
:0400000300001C00DD
:00000001FF
