:100000003FC10000A7C6000060C100005EC1000043
:100010005CC100005AC1000058C100000C944F0C94
:1000200054C1000052C1000050C100002CC50000A6
:100030002AC500004AC1000048C1000046C10000B6
:1000400044C1000042C100000C94940C0C94610C5B
:100050003CC100003AC1000038C1000036C10000B8
:1000600034C1000032C100000200080012001F006D
:100070003100470060007E009F00C500EE001B01BC
:100080004D018201BB01F80139027E02C702130350
:100090006403B90311046E04CE0433059B050706FF
:1000A0007706EC066407E0076008E4086B09F709C7
:1000B000870A1A0BB20B4E0CED0C900D380EE30EA6
:1000C000920F4510FC10B711761239130014CB149F
:1000D00099156C1643171D18FC18DE19C41AAF1BAE
:1000E0009D1C8F1D851E7F1F7D207F2184228E23D6
:1000F0009C24AE25C326DD27FA281B2A412B6A2C17
:10010000972DC82EFD2F36317332B433F934423671
:100110008E37DF38333A8C3BE83C493EAD3F1541E2
:100120008142F1436545DD465948D9495D4BE54C6F
:10013000704E005094512B53C65466560958B0590E
:100140005B5B0B5DBE5E75602F62EE63B1657867C9
:100150004269116BE46CBA6E9470737255743B769D
:100160002578137A067CFB7DF57FF381F583FB858B
:100170000488128A238C398E529070929194B6968C
:10018000DF980C9B3D9D729FABA1E8A329A66DA8AB
:10019000B6AA03AD53AFA8B100B45CB6BDB821BBDD
:1001A00089BDF5BF65C2D9C451C7CDC94CCCD0CE2D
:1001B00058D1E3D373D606D99EDB39DED8E07BE392
:1001C00022E6CEE87DEB2FEEE6F0A1F360F623F910
:1001D000E901B4048207550A2B0D0510E412C61577
:1001E000AC18961B841E76216C246527632A652D26
:1001F0006A30743382369339A83CC23FDF420046EE
:1002000025494E4C7B4FAC52E1551A59565C975FCD
:10021000DC6224667169C16C15706E73CA762A7AC5
:100220008E7DF6806284D287468BBE8E3992B995D8
:100230003D99C49C50A0DFA372A70AABA5AE44B2FF
:10024000E7B58EB939BDE8C09BC452C80CCCCBCF42
:100250008ED354D71FDBEDDEBFE296E670EA4EEE9A
:1002600030F216F60001020000001400FFFFFF004C
:100270000102000000140001FFFFA30A280A9F09E1
:1002800011241FBECFEFD4E0DEBFCDBF14BE88E186
:100290000FB6F89480936000109260000FBE11E0DA
:1002A000A0E0B1E0E6E3FCE102C005900D92A830C9
:1002B000B107D9F712E0A8E0B1E001C01D92A43463
:1002C000B107E1F72DD00C94190E9ACEFC011082E3
:1002D00011820895DC0111968C91119790E0FD0137
:1002E000E80FF91F628301968F73907011968C93BB
:1002F0000895DC012C9130E0FC01E20FF31F8281B4
:100300002F5F3F4F2F7330702C930895FC01818134
:10031000E0818E1710F08E1B0895805C8E1B08956F
:1003200026D10E94290C0E94C70C0E94160CA9D449
:10033000E5D70E943E0B882359F08091B4018130AB
:1003400041F480E06091B50146EB51E083D701C0F4
:10035000B2D778945CD117D55AD1D4D758D154D4C8
:1003600056D10E94BB0BF6CFE82FF0E0E059FE4FCC
:10037000808193818917B9F0891758F4292F281B98
:100380009585291718F0980F90830895280F2083DA
:100390000895282F291B9585291718F0891B80831C
:1003A0000895821B80830895E091270193E0E99FDF
:1003B000F0011124E85FFE4F808372836183809196
:1003C000270190E001966AE070E00E94EE0C8093B5
:1003D00027010895DC01E091260183E0E89FF00108
:1003E0001124E85FFE4F80818C9381819281129667
:1003F0009C938E9311978091260190E001966AE07C
:1004000070E00E94EE0C809326010895282F8091C1
:100410002701882311F489E001C0815090E0FC019C
:10042000EE0FFF1FE80FF91FE85FFE4F20830895CE
:100430008F929F92AF92BF92DF92EF92FF920F93B3
:100440001F93CF93DF937C0164E0A62E61E0B62E6C
:10045000950180E0782F7F5F472F15C0C42FD0E033
:10046000CC5FDE4F6881F9015081F701E60FF11D85
:10047000D701A50FB11D90818C91981718F4F9013F
:10048000608358834F5F433048F32F5F3F4F872F80
:10049000733001F710E0F70180818B3008F011E034
:1004A000F70181818B3008F01260F70182818B3077
:1004B00008F01460812F68EE7DEF76DFDD2451E0D7
:1004C000852E912CF5018081C82FD0E0F701EC0F2B
:1004D000FD1F0081802F8B50843F68F5F4EBFD15E4
:1004E00030F0053B20F0812F68EE7DEF5DDFD01608
:1004F000C0F4C4010C2E02C0880F991F0A94E2F7C1
:1005000080951823CE0DDF1D8881E82FF0E0EE0FD7
:10051000FF1FEA59FF4F65917491812F45DFD02E5F
:100520000AC0C40102C0880F991FCA95E2F78095DE
:100530001823812F6BDF0894A11CB11C87E0A8163B
:1005400081E0B80609F0BECFE4EBED1520F0812F75
:1005500068EE7DEF29DFDF91CF911F910F91FF9022
:10056000EF90DF90BF90AF909F908F900895A3E0A1
:10057000B0E0EDEBF2E00C940F0D85B1887F85B90A
:100580008BB18F718BB984B1876084B98AB1806E69
:100590008AB989E080938100EFE6F0E0808186608F
:1005A000808380E09AEF909389008093880088EEA2
:1005B0009DEF90938B0080938A0081E080937A0175
:1005C00080937D0180937B0180937E0180937C01E9
:1005D00080937F0100E711E0C8012ADFC80128DF0E
:1005E000CE010196F7DE898180932F0110922E01B2
:1005F0002396E4E00C942B0D809127019091260125
:10060000891710F0891B0895865F891B089503C020
:1006100080E791E00DDFF0DF8530D0F30895A0E0B2
:10062000B0E0E5E1F3E00C94070DEC01ED814E81C3
:10063000EE2319F44883498391C08B819C8168E63D
:1006400071E00E94DA0C6C016CE370E00E94DA0C3D
:100650002FEF30E0BC01629FC001639F900D729F3D
:10066000900D11244E966CE370E00E94DA0C7B0131
:10067000F0E0C9018E1B9F0B042F10E0BC01609FAE
:10068000C001619F900D709F900D112480589F4F65
:100690006FEF70E00E94EE0C5B01EE9EC001EF9EDA
:1006A000900DFE9E900D112480589F4F6FEF70E0CB
:1006B0000E94DA0CC901861B970BBC01609FC00128
:1006C000619F900D709F900D112480589F4F6FEF88
:1006D00070E00E94DA0C4B01C9018E199F09BC0120
:1006E0006E9FC0016F9F900D7E9F900D11246FEF44
:1006F00070E00E94DA0C261B370B209FC001219F5F
:10070000900D309F900D11246FEF70E00E94DA0C75
:100710009B01C6016CE370E00E94DA0C6230A9F024
:10072000633028F4662351F06130E9F40AC0643084
:1007300099F0643070F06530B1F412C048832983B9
:1007400002C088824983AA820EC0A88249832A8374
:100750000AC0A882898202C02883A9824A8303C072
:100760004883A9828A82CDB7DEB7ECE00C94230DD2
:100770001F93CF93DF93FC01908181815281282FB9
:10078000891708F4292F322F251708F4352F3683BF
:100790001582332309F1981708F4892F482F581729
:1007A00008F4452F132F141BC12FD0E08FEF90E0DA
:1007B000BC01C69FC001C79F900DD69F900D11240C
:1007C000232F2695632F70E0820F911D0E94EE0C5F
:1007D0006583341729F451C015821482138256C0E0
:1007E000512F5695408121813417B9F4822F90E022
:1007F0002281821B91092CE330E0BC01629FC00181
:10080000639F900D729F900D1124850F911DBE0165
:100810000E94EE0C68597E4F32C082813217A9F4D3
:1008200090E0841B91092CE330E0BC01629FC00181
:10083000639F900D729F900D1124850F911DBE0135
:100840000E94EE0C68587F4F1AC03817B1F4842FFD
:1008500090E0821B91092CE330E0BC01629FC00153
:10086000639F900D729F900D1124850F911DBE0105
:100870000E94EE0C60517F4F02C060E070E0CB013F
:1008800068E671E00E94DA0C94838383DF91CF9154
:100890001F910895E3E7F1E0DF01139783E00D90E6
:1008A00001928150E1F710922E010895681710F41B
:1008B000861B0895681B862F08958F929F92BF9282
:1008C000CF92DF92EF92FF920F931F93DF93CF931C
:1008D0000F92CDB7DEB7B82EC62E00E711E0480163
:1008E000DD24FF2490E0F401838160819983DEDFC1
:1008F0009981F81610F4D92EF82E9F5F0894811C68
:10090000911C933081F7ED2DF0E0E059FE4FB58654
:10091000C286EE248F2C9924ED14C9F0F80183814E
:100920006081C4DF882361F0682F70E086959401B0
:10093000280F311DC9010E94EE0C862F662309F491
:1009400081E08C9D802D1124F8018287B586E39487
:100950000F5F1F4FF3E0EF16F9F60F90CF91DF9185
:100960001F910F91FF90EF90DF90CF90BF909F90DD
:100970008F9008959091730180917001981779F488
:100980009091740180917101981749F420E0909141
:10099000750180917201981719F421E001C020E0DF
:1009A000822F0895E3E7F1E0DC0190818C91282FFC
:1009B000332727FD3095290F311D2F3F310521F0B9
:1009C0001CF02FEF30E004C037FF02C020E030E021
:1009D0002193119681E0E637F80739F7862F642FC7
:1009E0006CDF10922E0108950F931F93CF93DF9326
:1009F000EC01162F042F83E791E0BADE88819981FC
:100A00002091760130917701820F931F90937701A7
:100A100080937601909178018A81282F332727FDD2
:100A20003095290F311D2F3F310521F01CF02FEF9C
:100A300030E004C037FF02C020E030E020937801AE
:100A4000909179018B81282F332727FD3095290F2D
:100A5000311D2F3F310521F01CF02FEF30E004C095
:100A600037FF02C020E030E02093790183E791E076
:100A7000D6DD812F602F21DF10922E01DF91CF91E3
:100A80001F910F9108951F920F920FB60F9211248C
:100A90000F931F932F933F934F935F936F937F9386
:100AA0008F939F93AF93BF93EF93FF93DF93CF9376
:100AB00000D00F92CDB7DEB790912F0185B1887F1E
:100AC000892B85B98BB19295990F907E8F71982B58
:100AD0009BB98E010F5F1F4F13C0809184009091CE
:100AE000850082179307C8F385B19981887F892B88
:100AF00085B98BB19295990F907E8F71982B9BB988
:100B0000C80168DC80918400909185002A813B8136
:100B10008C599F4F2817390700F330938B0020938F
:100B20008A00898180932F010F900F900F90CF91B1
:100B3000DF91FF91EF91BF91AF919F918F917F9145
:100B40006F915F914F913F912F911F910F910F9056
:100B50000FBE0F901F901895EF92FF920F931F9367
:100B60008C01862FF42E60918101ACD0E82E8F2D60
:100B700060918201A7D0682FF80180818093730172
:100B8000818180937401828180937501662309F4C9
:100B900061E08E2D92DE10922E011F910F91FF9039
:100BA000EF900895CF92DF92EF92FF920F931F93F1
:100BB0007C01862F142F6091810184D0C82E812F53
:100BC000609182017FD0D82E06E711E0F701808185
:100BD0009181A281B3818093760190937701A09354
:100BE0007801B0937901C80198D0C801039717DD47
:100BF0008C2D6D2D62DE10922E011F910F91FF90B2
:100C0000EF90DF90CF900895EF92FF920F931F9394
:100C1000CF93DF93C0E7D1E008E211E0FF24F39423
:100C2000EE2480912E018F2169F0C80124D68823FB
:100C300049F08E2D99DB8F2D809590912E0189237F
:100C400080932E0180912E018F2171F498818B81E8
:100C5000981751F06A85662339F0C80106D680914D
:100C60002E018F2980932E01E39421960E5F1F4F52
:100C700083E0E81611F0FF0CD4CFCDB7DEB7E6E085
:100C8000E8C63A98429A3B9A43988FEF8093850141
:100C90008093860152985A98329903C081E08093DC
:100CA000870108958091A001882311F4529A5A98DF
:100CB00008958091A001882321F052985A981092AB
:100CC000A0010895482F67FF10C0282F30E0862F1D
:100CD000992787FD9095909581959F4F821793074F
:100CE00014F041E010C0460F0EC0662361F0772774
:100CF00067FD7095680F711D6F3F710519F010F059
:100D00004FEF01C0462F842F0895689FC001112422
:100D10006FEF70E04FD6CB0108950F931F938C01B6
:100D2000FC01808191812091830130918401820FA7
:100D3000931F91838083828160918501E6DFF801B2
:100D40008283838160918601E0DFF80183831F91B4
:100D50000F910895189582E092E0D8DA8823D9F7A8
:100D60008091C00085FFF7CF08951F93CF93DF9345
:100D7000EC0110E0899100D61F5F1F30D9F7DF9199
:100D8000CF911F910895A8E1B0E0E8ECF6E048C6E5
:100D900080EC91E0BBDA882389F180EC91E0A9DA5C
:100DA000182F809198018F3089F410938001812F42
:100DB0008F5FE2D51092970181E0809399011092A4
:100DC0009B0110929A01109287010EC0812FD4D5F9
:100DD000809197018F3040F4E82FF0E0E857FE4F04
:100DE00010838F5F809397011B3131F480919801BC
:100DF0008F5F8093980102C01092980180919901B1
:100E0000882309F471C180919A0190919B01009708
:100E100029F08C3B910509F063C106C08CEB90E092
:100E200090939B0180939A01809197018F3009F0F4
:100E30005BC19091880180918001981719F09F3FC4
:100E400009F04BC180918901873009F4B7C088301F
:100E500088F48330A9F1843030F4813009F1823094
:100E600009F03BC125C0853009F46DC0863008F01B
:100E70008CC047C08A3009F4CAC08B3038F488303F
:100E800009F4A5C0893009F028C1A9C08C3009F443
:100E9000FFC08C3008F4D1C0803809F01EC1D8C022
:100EA0008CE891E060918A0140918B0155DE15C17B
:100EB0008CE891E060918A0140918B0173DE0DC155
:100EC00020918A012C3308F008C180918B0189831D
:100ED00080918C018A8380918D0190918E019C83F9
:100EE0008B838FEF888780918F018D838091900114
:100EF0008E83809191018F83822FBE016F5F7F4F20
:100F000042C020918A012C3308F0E7C080918B0108
:100F1000898780918C018A8780918D0190918E01C3
:100F20009C878B8780918F0190919001988B8F8700
:100F3000809191018D87809192018E87822FBE01D1
:100F4000675F7F4F20C020918A012C3308F0C5C015
:100F500080918B01898B80918C018A8B80918D018E
:100F600090918E019C8B8B8B8FEF888F809170017D
:100F70008D8B809171018E8B809172018F8B822F6E
:100F8000BE016F5E7F4FA5D3A8C080918A01809378
:100F9000810180918B018093820180918C019091DD
:100FA0008D01909384018093830180918E018093C1
:100FB000850180918F01809386018FC041D16ADCC9
:100FC00080E060918A014BE851E044D186C038D17D
:100FD00080918A01882309F480C05CDC7EC0809106
:100FE000A101882309F479C0C5DC882309F475C000
:100FF0008CE891E060918A0140918B01D3DC8FE80D
:1010000091E060918A0140918B01EEDC66C04ADE7E
:1010100060918A01662311F465E008C0643310F022
:101020006FEF04C085E0689F602D11248EE991E088
:101030001CD482E08093A00150C0A4EBB1E0EAE8A8
:10104000F1E08CE001900D928150E1F7F4D245C0BF
:1010500080918A018B3609F040C080918B018635E2
:1010600009F03BC080918C01873209F036C0809135
:101070008D018C3F91F56FDE2BE088E190E00FB69B
:10108000F894A895809360000FBE2093600025C05F
:1010900083B7817F846083BF5EDE95B128B13BB1A9
:1010A00044B157B16AB115B818B81BB814B817B81D
:1010B0001AB884E08AB98BB981E08CBBE89A83B70F
:1010C000816083BF889583B78E7F83BFE89895B989
:1010D00028B93BB944B957B96AB9109297019ECE65
:1010E00010929B0110929A018091A001823031F4FC
:1010F0008EE991E0C0D3882309F0DBDD8091870180
:10110000882309F49AC080919C0190919D018C3FA5
:101110009105C1F08D3F910518F4892B59F089C0D4
:1011200021E08231920709F44DC08F51914009F0BE
:1011300080C064C085E391E064E197D303C08CEF85
:1011400090E057C085E391E096D38823C1F38FEFF9
:101150008093370187E08093380184E692E0909392
:10116000320180933101109230015DC069D092DB71
:10117000E0913101F09132013196F0933201E09328
:1011800031013197E491E0933901AAE3B1E0E091B4
:101190003101F09132013196F0933201E093310147
:1011A0003197E491ED9381E0A434B80781F710E022
:1011B0008BE1E2D31F5F1F30D9F781E0DDD382E1FD
:1011C00091E017C087E391E0D0DD80E060913901C4
:1011D0004AE351E03FD084E893E090933401809358
:1011E000330111C085E391E064E63FD307C08FE18E
:1011F00091E090939D0180939C011FC085E391E055
:101200003AD38823A1F3809133019091340101975F
:101210009093340180933301019621F7809130013E
:101220008F5F8093300180913001823008F095CF3C
:101230009DCF10929D0110929C016896E3E00CC432
:101240001092A6011092A5011092A40181E0809352
:10125000A1010895633070F51092A101282F30E0AC
:10126000F90174E0EE0FFF1F7A95E1F7E21BF30B33
:10127000E955FE4FDA018AE00D9001928150E1F7C5
:10128000E62FF0E0EE0FFF1FE658FD4F8591949199
:10129000F90144E0EE0FFF1F4A95E1F7E21BF30B63
:1012A000EF55FE4F9283818381E0858381EB91E04E
:1012B0006AE0DBC20895AAE0B0E0E0E6F9E0B1C37D
:1012C00087E190E09A8389838B818E7F82608B8314
:1012D0008CE38A878FEF8887898781E08C8383E01E
:1012E0008D8384E690E09F838E8380E061E0AE0191
:1012F0004F5F5F4FAFDF2A96E2E0AFC381EB91E033
:1013000064E1B3C28091A1018823C1F481EB91E033
:10131000B2D2882399F08091A601882359F0E091F8
:10132000A201F091A30182EA91E00995823014F0C4
:101330001092A60181EB91E06AE097C20895A7E0C0
:10134000B0E0E4EAF9E06BC38C01FC018281938197
:10135000009729F0823C910509F073C066C0F8013E
:10136000858180934D0110924C0180914D0164E480
:1013700071E095D180914B018F3F89F480914801B4
:101380008983809149018A8380914A018B83CE01B0
:1013900001966091440140914501DEDB13C08091CC
:1013A0004A0190914B019D838C83809148018E83EB
:1013B000809149018F83CE01049660914401409150
:1013C0004501F0DB80914C0190914D018823D1F4CF
:1013D000F80186819817E1F48781813051F08130DE
:1013E00018F0823011F50AC0F8011382128282E0EF
:1013F0002CC0F801858180934D0117C081E0809356
:101400004C010AC0F8018581981731F410924C0103
:101410009F5F90934D0109C09150FBCF82EC90E00B
:10142000F8019383828381E010C0809146019091FE
:10143000470101979093470180934601019671F708
:1014400094CFF8011382128283E02796E4E003C36D
:10145000CF93DF93EC018A819B818837910509F452
:101460004EC08F37910509F45CC0892B09F065C027
:101470006D817E818F8180FF05C08091800190E029
:101480006827792780E090E041D38D8580935101D2
:101490008C858093500137D3DC01CB0168E671E085
:1014A00089D2BC018E85482F50E041155105B9F015
:1014B00020914E0130914F01261B370B37FF03C09F
:1014C000309521953F4F253B310534F088E691E07A
:1014D000FC01E21BF30B9F0124173507E4F2709324
:1014E0004F0160934E018EE491E0688549855ADB97
:1014F0008F8181FF07C088E790E09B838A833ADA77
:101500008823F1F08A859B85009729F290935301F7
:101510008093520106C08FE790E09B838A8381E02D
:101520000FC0809152019091530101979093530104
:1015300080935201019679F7AECF1B821A8283E025
:10154000DF91CF910895CF93DF93EC018A819B8146
:101550008434910509F45DC08534910508F065C0B7
:10156000009721F0CF9709F060C040C048855985A9
:1015700050935501409354018E85809357018D857A
:10158000809356012091800130E08C85992787FD5A
:101590009095B901689F9001699F300D789F300D3B
:1015A00011248A859B85BC01269FC001279F900D31
:1015B000369F900D1124840F951F909355018093B1
:1015C000540184E591E06D814E81ECDA8A859B853A
:1015D0002091540130915501820F931F9093550132
:1015E000809354018FE390E09B838A83C3D988233F
:1015F000F9F08F812AE0829FC00111249093590154
:101600008093580106C084E490E09B838A8381E044
:101610000FC0809158019091590101979093590101
:1016200080935801019679F7CCCF1B821A8283E010
:10163000DF91CF91089580916E018823F1F483E2C8
:101640008093B301ABE5B1E0E3EBF1E08DE0019015
:101650000D928150E1F7109268018DE080936B014B
:1016600080E090E090936A018093690181E080932B
:101670006E011092B30180935A01089580915A012E
:10168000882319F480E090E0089590E08091B30100
:10169000833209F091E081E09827892F08959B011A
:1016A000682F70E083E0660F771F8A95E1F7635F2C
:1016B0007F4FC90148E050E032C280915A0188232F
:1016C00039F083EB91E060E070E04DE050E027C23C
:1016D0000895982F80916E018823E9F4ABE5B1E07D
:1016E000FB0188E001900D928150E1F710926801B2
:1016F00088E080936B01892F90E023E0880F991F89
:101700002A95E1F7835F9F4F90936A018093690167
:1017100081E080936E0108950F931F93CF93DF9321
:10172000C0E0D0E080E090E08C010F5F1F4F07D257
:10173000C8278C2F82958C27082E86958695802524
:10174000082E8695802587700C2ECD2F86950794C0
:101750008795D02DC82706948795D025C82781E086
:101760000D3E180711F0C801DFCFCE01DF91CF91F8
:101770001F910F91089520916E01222309F455C005
:1017800080916C0190916D018436910509F43DC002
:101790008536910538F4009749F08E35910509F0AA
:1017A00040C021C08C36910509F03BC0213091F535
:1017B00079DA1BC08091690190916A01019690933A
:1017C0006A0180936901019720916801E22FF0E09E
:1017D000E65AFE4F61812F5F20936801BDD103C09F
:1017E0008EE590E019C0F999FBCF80916B01815093
:1017F00080936B018F5FF1F68FDFBC018DEE91E07E
:10180000B9D103C084E690E007C0F999FBCF51DA63
:1018100010926E018CE690E090936D0180936C01C4
:10182000089510926D0110926C0108950F931F930B
:1018300073DF8C018DEE91E08AD110925A01081766
:10184000190719F481E080935A0137DF1F910F9136
:1018500008958CE98093B30092E09093B00087E004
:101860008093B100909370000895FC0180916F0106
:10187000808361830895FC012181222311F481E09A
:10188000089590916F018081891711F480E0089587
:101890002150218380916F01808380E008957894A6
:1018A0001F920F920FB60F9211248F9380916F01A8
:1018B0008F5F80936F018F910F900FBE0F901F90DD
:1018C00018951F920F920FB60F9211242F933F93EA
:1018D0004F935F936F937F938F939F93AF93BF9338
:1018E000EF93FF9382E092E00E9479018093C6001B
:1018F00082E092E00E948601882329F48091C10051
:101900008F7D8093C100FF91EF91BF91AF919F9127
:101910008F917F916F915F914F913F912F910F9098
:101920000FBE0F901F9018951F920F920FB60F9237
:1019300011242F933F934F935F936F937F938F93D4
:101940009F93AF93BF93EF93FF936091C60080EC9A
:1019500091E00E946A01FF91EF91BF91AF919F9139
:101960008F917F916F915F914F913F912F910F9048
:101970000FBE0F901F901895682F82E092E00E9492
:101980006A01E1ECF0E0808180628083089510922A
:10199000C50083E38093C40086E08093C20088E999
:1019A0008093C10080EC91E00E94660182E092E0A9
:1019B0000C946601AA1BBB1B51E107C0AA1FBB1FE9
:1019C000A617B70710F0A61BB70B881F991F5A95CB
:1019D000A9F780959095BC01CD01089597FB092E3C
:1019E00007260AD077FD04D0E5DF06D000201AF4E0
:1019F000709561957F4F0895F6F7909581959F4F6B
:101A000008952F923F924F925F926F927F928F92A2
:101A10009F92AF92BF92CF92DF92EF92FF920F937D
:101A20001F93CF93DF93CDB7DEB7CA1BDB0B0FB687
:101A3000F894DEBF0FBECDBF09942A883988488844
:101A40005F846E847D848C849B84AA84B984C884DA
:101A5000DF80EE80FD800C811B81AA81B981CE0FD1
:101A6000D11D0FB6F894DEBF0FBECDBFED010895B6
:101A7000A0E0B0E0EDE3FDE0CCCFEC01A880B980C0
:101A8000CA80DB80A114B104C104D10441F484E212
:101A9000A82E89EDB82E8BE5C82E87E0D82EC6017A
:101AA000B5012DE133EF41E050E086D027EA31E483
:101AB00040E050E062D07B018C01C601B5012DE110
:101AC00033EF41E050E078D0CA01B9012CEE34EF99
:101AD0004FEF5FEF52D06E0D7F1D801F911F97FF5C
:101AE00004C06150704080409048688379838A8345
:101AF0009B839B01AC015F77B901CA01CDB7DEB70B
:101B0000EAE0A3CFB5CF80E091E0B2CF60930001CF
:101B10007093010180930201909303010895DC0109
:101B2000CB01FC01F999FECF06C0F2BDE1BDF89AE8
:101B3000319600B40D9241505040B8F70895F9998C
:101B4000FECF92BD81BDF89A992780B50895A8E18E
:101B5000B0E042E050E0E5CF262FF999FECF1FBA62
:101B600092BD81BD20BD0FB6F894FA9AF99A0FBEC6
:101B700001960895F1DF272FF0CF629FD001739F68
:101B8000F001829FE00DF11D649FE00DF11D929F19
:101B9000F00D839FF00D749FF00D659FF00D992758
:101BA000729FB00DE11DF91F639FB00DE11DF91F7C
:101BB000BD01CF011124089597FB092E05260ED0F3
:101BC00057FD04D014D00AD0001C38F4509540952D
:101BD000309521953F4F4F4F5F4F0895F6F7909501
:101BE0008095709561957F4F8F4F9F4F0895A1E22B
:101BF0001A2EAA1BBB1BFD010DC0AA1FBB1FEE1F87
:101C0000FF1FA217B307E407F50720F0A21BB30BD1
:101C1000E40BF50B661F771F881F991F1A9469F74D
:101C200060957095809590959B01AC01BD01CF01A9
:061C30000895F894FFCFB7
:081C36000100000000010200A2
:00000001FF
