:103C00000C94021E11241FBECFEFD4E0DEBFCDBF47
:103C100014BE88E10FB6F8948093600010926000A3
:103C20000FBE11E0A0E0B1E0E6EFFFE302C00590B7
:103C30000D92A030B107D9F713E0A0E0B1E001C0C8
:103C40001D92AC31B107E1F73FD0D3C1D9CF862760
:103C5000282F22952827022E269526952025022EEC
:103C6000269520252770082E892F269507942795BD
:103C7000902D822706942795902582270895982FC6
:103C80008091C00085FFFCCF9093C600089515B8C1
:103C900014B81BB81AB81092C5001092C40080E482
:103CA0008093C0001092C100109281001092890090
:103CB00010928800109285001092840086B386BB13
:103CC000E0E0F0E0099508958DE093E0909389009D
:103CD000809388008DE080938100E0E0F0E08591A2
:103CE00094918F5F9F4F39F05A9A8091840082306F
:103CF000E0F34A9974C11092C50083E38093C40035
:103D000086E08093C20088E18093C10087E084B997
:103D100099249394DD24D394F3E08F2EE5E07E2E56
:103D200071E1B72E62E0C62E54E0A52E8091C0004E
:103D300087FF28C01091C600809102018F3051F496
:103D400010930301812F8F5F9ADF10920801D092A8
:103D500001010EC0812F93DF809108018F3040F464
:103D6000E82FF0E0EF5FFE4F10878F5F8093080130
:103D70001B3131F4809102018F5F8093020102C0F8
:103D80001092020180910101882309F400C1809101
:103D900008018F3009F0FBC0909109018091030167
:103DA000981719F09F3F09F0F0C080910A018438FC
:103DB00009F442C0853840F48238C9F08338E0F411
:103DC000813809F0D8C00AC0863809F478C086382E
:103DD00008F44EC0873809F0CEC0C9C080910B01ED
:103DE00090910C0190931B0180931A01C4C0109212
:103DF000190110921801BFC02091180130911901CA
:103E0000C9010D968150924010F40DE002C0022FBE
:103E1000019510E0C901845E9E4F6BE071E0A8013E
:103E2000DFD08091180190911901080F191F10938C
:103E30001901009318019FC0C0910B01D0910C0192
:103E40000CE111E02FEF3FEF07C0F80161918F0106
:103E5000C901FDDE9C0121972097B9F780910D01E2
:103E600090910E012817390739F180910F011FC079
:103E700000910B0110910C01C0910D01D0910E0128
:103E80002FEF3FEF09C0F8010F5F1F4FE491C90109
:103E90006E2FDDDE9C0121972097A9F780910F01FD
:103EA000909110012817390739F080911101809302
:103EB0000501109204015FC0D09204015CC0529AC7
:103EC00000911A0110911B01809118019091190124
:103ED0009C01220F232F221F330B31958F77907077
:103EE000892B09F02F5FB801ACE1B1E030E03695E5
:103EF000322F2227379527957D01E20EF31E2CC025
:103F0000299AFB0180925700E89507B600FCFDCF87
:103F1000ED0140E050E0FB01E40FF51F899199911C
:103F20000C0190925700E895112407B600FCFDCFD4
:103F30004E5F5F4F4038510571F7A058BF4FFB01EE
:103F400070925700E89507B600FCFDCFB09257007D
:103F5000E895299860587F4FAE15BF0589F6020F86
:103F6000131F10931B0100931A01529804C0D092A2
:103F70000601C092070180910501882331F08091EC
:103F80000401882311F4529A289A10920801B19BD7
:103F9000CDCEC6BA809100018F5F80930001815021
:103FA000843129F485B18A2585B910920001529B8C
:103FB00009C080910501815080930501882311F487
:103FC0005298289880910601882309F4AFCE8091F9
:103FD00007018150809307018F5F09F0A7CE57DE5C
:103FE000FB01DC0102C001900D9241505040D8F716
:063FF0000895F894FFCFD4
:0400000300003C00BD
:00000001FF
